:100000000C9434000C943E000C943E000C943E0082
:100010000C943E000C943E000C943E000C943E0068
:100020000C943E000C943E000C943E000C943E0058
:100030000C943E000C943E000C943E000C943E0048
:100040000C943E000C943E000C943E000C943E0038
:100050000C943E000C943E000C943E000C943E0028
:100060000C943E000C943E0011241FBECFEFD8E04C
:10007000DEBFCDBF0E9440000C9459000C940000DC
:100080002A985B9A5A982FEF89E698E12150804090
:100090009040E1F700C000005B982A9A5A9A2FEF2F
:1000A00089E698E1215080409040E1F700C00000CF
:0600B000E8CFF894FFCF39
:00000001FF
